:100000000C942A000C94A90A0C94850A0C943E0ABC
:100010000C9447000C9447000C9447000C94470044
:100020000C9447000C9447000C9447000C94470034
:100030000C9447000C9447000C9447000C94470024
:100040000C9447000C9447000C9447000C94470014
:100050000C94470011241FBECFE5D8E0DEBFCDBF12
:1000600010E0A0E6B0E0E2EAF8E102C005900D92EF
:10007000A23EB107D9F721E0A2EEB0E001C01D9287
:10008000AF31B207E1F70E94CD0A0C944F0C0C94EB
:100090000000FC010FB6F89460911B0170911C01E7
:1000A00080911D0190911E010FBE309721F0608359
:1000B0007183828393830895672B09F0DFC00097D3
:1000C00021F48BB38E7F8BBB08958130910521F491
:1000D0008BB38D7F8BBB08958230910521F48BB358
:1000E0008B7F8BBB08958330910521F48BB3877F81
:1000F0008BBB08958430910521F48BB38F7E8BBB2D
:1001000008958530910521F48BB38F7D8BBB0895C5
:100110008630910521F48BB38F7B8BBB089587309C
:10012000910521F48BB38F778BBB08958A309105AD
:1001300021F488B38E7F88BB08958B30910521F41C
:1001400088B38D7F88BB08958C30910521F488B3E6
:100150008B7F88BB08958D30910521F488B3877F0C
:1001600088BB08958E30910521F488B38F7E88BBBB
:1001700008958F30910521F488B38F7D88BB089551
:100180008031910521F488B38F7B88BB089581313C
:10019000910521F488B38F7788BB08958431910548
:1001A00021F485B38E7F85BB08958531910521F4B7
:1001B00085B38D7F85BB08958631910521F485B384
:1001C0008B7F85BB08958731910521F485B3877FA7
:1001D00085BB08958831910521F485B38F7E85BB59
:1001E00008958931910521F485B38F7D85BB0895EC
:1001F0008A31910521F485B38F7B85BB08958B31BE
:10020000910521F485B38F7785BB08958E319105D3
:1002100021F482B38E7F82BB08958F31910521F442
:1002200082B38D7F82BB08958032910521F482B321
:100230008B7F82BB08958132910521F482B3877F41
:1002400082BB08958232910521F482B38F7E82BBF6
:1002500008958332910521F482B38F7D82BB089586
:100260008432910521F482B38F7B82BB08958597F8
:1002700009F0E1C082B38F7782BB0895009721F423
:100280008BB381608BBB08958130910521F48BB3D2
:1002900082608BBB08958230910521F48BB384601A
:1002A0008BBB08958330910521F48BB388608BBBA1
:1002B00008958430910521F48BB380618BBB089540
:1002C0008530910521F48BB380628BBB0895863015
:1002D000910521F48BB380648BBB08958730910521
:1002E00021F48BB380688BBB08958A30910521F48B
:1002F00088B3816088BB08958B30910521F488B361
:10030000826088BB08958C30910521F488B38460A5
:1003100088BB08958D30910521F488B3886088BB2F
:1003200008958E30910521F488B3806188BB0895CB
:100330008F30910521F488B3806288BB08958031A5
:10034000910521F488B3806488BB089581319105BB
:1003500021F488B3806888BB08958431910521F425
:1003600085B3816085BB08958531910521F485B3FE
:10037000826085BB08958631910521F485B3846040
:1003800085BB08958731910521F485B3886085BBCD
:1003900008958831910521F485B3806185BB089566
:1003A0008931910521F485B3806285BB08958A3136
:1003B000910521F485B3806485BB08958B31910547
:1003C00021F485B3806885BB08958E31910521F4B1
:1003D00082B3816082BB08958F31910521F482B38D
:1003E000826082BB08958032910521F482B38460DB
:1003F00082BB08958132910521F482B3886082BB6B
:1004000008958232910521F482B3806182BB089500
:100410008332910521F482B3806282BB08958432D5
:10042000910521F482B3806482BB0895859719F405
:1004300082B3806882BB0895CF93C82F80FF07C026
:1004400061E070E082E290E00E945C0006C060E043
:1004500070E082E290E00E945C00C1FF07C061E0B2
:1004600070E083E290E00E945C0006C060E070E013
:1004700083E290E00E945C00C2FF07C061E070E090
:1004800084E290E00E945C0006C060E070E084E2DC
:1004900090E00E945C00C3FF07C061E070E085E26D
:1004A00090E00E945C0006C060E070E085E290E0B1
:1004B0000E945C00CF910895CF93C82F60E070E058
:1004C0008AE190E00E945C008C2F0E941C0261E097
:1004D00070E08BE190E00E945C0089EF90E0019772
:1004E000F1F700C0000060E070E08BE190E00E9456
:1004F0005C0089EF90E00197F1F700C00000CF9118
:100500000895CF93813061F480E8860FC62FCF70B5
:1005100082958F700E945C028C2F0E945C020DC03D
:10052000823059F480EC860FC62FCF7082958F7081
:100530000E945C028C2F0E945C02CF91089580E0A3
:100540000E941C0287E893E10197F1F700C00000C8
:1005500083E00E945C0281EE94E00197F1F700C015
:10056000000083E00E945C028DEB9AE00197F1F7B6
:1005700000C0000083E00E945C0282E00E945C02F6
:1005800082E00E945C0288E00E945C0280E00E949F
:100590005C028CE00E945C0280E00E945C0286E0CB
:1005A0000E945C020895CF93DF93D82FDF70C82F8D
:1005B000C07F61E070E08AE190E00E945C008C2FD7
:1005C00082958F700E941C0261E070E08BE190E0E8
:1005D0000E945C0089EF90E00197F1F700C00000F5
:1005E00060E070E08BE190E00E945C0089EF90E0B9
:1005F0000197F1F700C000008D2F0E941C0261E0FE
:1006000070E08BE190E00E945C0089EF90E0019740
:10061000F1F700C0000060E070E08BE190E00E9424
:100620005C0089EF90E00197F1F700C00000DF91D6
:10063000CF9108950F931F93CF93DF938C01C0E068
:10064000D0E003C00E94D3022196F801EC0FFD1FF9
:1006500080818111F7CFDF91CF911F910F91089584
:1006600085E080B981B18C7F81B9089524EA26BFE5
:1006700006B607FEFDCF21B1287F2830B1F520EA6C
:1006800023B924E826BF06B607FEFDCF21B1287F97
:10069000283161F793B994E896BF06B607FEFDCFFF
:1006A00091B1987F983219F583B984E886BF06B670
:1006B00007FEFDCF81B1887F8832D9F463B984E821
:1006C00086BF06B607FEFDCF81B1887F883299F4D8
:1006D00084E986BF06B604FCFDCF87EB9BE001975B
:1006E000F1F700C0000081E0089580E0089580E007
:1006F000089580E0089580E0089524EA26BF06B6B4
:1007000007FEFDCF21B1287F283009F043C020EA41
:1007100023B924E826BF06B607FEFDCF21B1287F06
:10072000283159F793B994E896BF06B607FEFDCF76
:1007300091B1987F983281F583B984E886BF06B677
:1007400007FEFDCF81B1887F883241F584EA86BFFC
:1007500006B607FEFDCF81B1887F803109F581EAB9
:1007600083B984E886BF06B607FEFDCF81B1887FD6
:100770008034C1F484E886BF06B607FEFDCF81B1A0
:10078000887F883589F483B194E996BF06B604FC66
:10079000FDCF089580E0089580E0089580E00895F9
:1007A00080E0089580E0089580E00895CF93DF937E
:1007B000CDB7DEB769970FB6F894DEBF0FBECDBFD9
:1007C0008FE0E4E9F0E0DE01119601900D928A9548
:1007D000E1F78AE0E3EAF0E0DE01509601900D9245
:1007E0008A95E1F780E090E00E947D03805D888F2C
:1007F00061E081E00E948102CE0101960E941A030D
:1008000061E082E00E948102CE0140960E941A03BC
:1008100069960FB6F894DEBF0FBECDBFDF91CF91C2
:1008200008959C012150310981E090E002C0880FB9
:10083000991F2A95E2F78095FB01EC59FF4F9081B3
:100840008923808308959C012150310981E090E043
:1008500002C0880F991F2A95E2F7FB01EC59FF4F60
:100860009081892B80830895CF93DF93CDB7DEB736
:1008700060970FB6F894DEBF0FBECDBF80E1E4E70E
:10088000F0E0DE01119601900D928A95E1F780E08B
:1008900090E00DC0282F2295207F28BBE1E0F0E0FA
:1008A000EC0FFD1FE80FF91F20812BBB0196803153
:1008B000910584F360960FB6F894DEBF0FBECDBFEE
:1008C000DF91CF910895CF93DF93CDB7DEB7A09797
:1008D0000FB6F894DEBF0FBECDBF80E1EDEAF0E0C9
:1008E000DE01119601900D928A95E1F761E081E0B9
:1008F0000E948102CE0101960E941A0380E1EDEB75
:10090000F0E0DE01519601900D928A95E1F7809119
:100910000C0190910D016AE070E00E94680B805D0F
:100920008F8F80910C0190910D010A97C4F18091F5
:100930000C0190910D0164E670E00E94680B9C012F
:1009400080910C0190910D01EAE0F0E0BF010E945E
:10095000680BA901481B590BCA01BF010E94680B13
:10096000605D6E8F80910C0190910D018436910530
:10097000B4F020910C0130910D0180910C01909107
:100980000D01E4E6F0E0BF010E94680BA901481BDD
:10099000590BCA01BF010E94680B605D6D8F61E059
:1009A00082E00E948102CE0141960E941A03A09625
:1009B0000FB6F894DEBF0FBECDBFDF91CF91089583
:1009C000CF93DF93CDB7DEB760970FB6F894DEBF55
:1009D0000FBECDBF8091F5009091F600892B09F5EF
:1009E0002091F0003091F10080910C0190910D0167
:1009F0002817390784F460910C0170910D0180E093
:100A000090E00E9436030E94630482B38C7F82BB15
:100A100082B3836082BB81E090E09093F600809384
:100A2000F50080E1E4E8F0E0DE01119601900D921E
:100A30008A95E1F780E090E00DC0282F2295207F75
:100A400028BBE1E0F0E0EC0FFD1FE80FF91F20816B
:100A50002BBB01968031910584F360960FB6F89414
:100A6000DEBF0FBECDBFDF91CF9108950F931F93CF
:100A7000CF93DF93CDB7DEB764970FB6F894DEBFA0
:100A80000FBECDBFAC018B019AE0EDECF0E0DE01D2
:100A9000119601900D929A95E1F79AE0E7EDF0E05A
:100AA000DE011B9601900D929A95E1F72AE030E065
:100AB000CA01B9010E94680B805D8987605D688703
:100AC000C801B9010E94680B805D8B8B605D6A8BE9
:100AD00061E081E00E948102CE0101960E941A032A
:100AE00061E082E00E948102CE010B960E941A030F
:100AF00064960FB6F894DEBF0FBECDBFDF91CF91E5
:100B00001F910F910895CF93DF93C4E1D1E0EA8163
:100B1000FB81EC59FF4F8FEF8083EA81FB81EB591A
:100B2000FF4F8083EA81FB81EA59FF4F8083EA818E
:100B3000FB81ED59FF4F80836A817B818881998198
:100B40000E9411046A817B818881998161507109B9
:100B500001960E9411046A817B818881998161508C
:100B6000710901970E9411046A817B8188819981B2
:100B70006F5F7F4F01960E9411046A817B8188819B
:100B800099816F5F7F4F01970E9411046A817B8179
:100B9000888199816E5F7F4F0E941104DF91CF9110
:100BA0000895CF93DF93CDB7DEB72E970FB6F894A5
:100BB000DEBF0FBECDBF0E94DC0B837090789923FF
:100BC00024F401978C6F9F6F0196009779F48DE064
:100BD00090E09B878A870E94DC0B65E070E00E94B2
:100BE000680B0296998788871E8637C081309105E9
:100BF00081F48DE090E09B878A870E94DC0B65E0A2
:100C000070E00E94680B02969987888781E08E8742
:100C100024C08230910581F48EE090E09B878A8722
:100C20000E94DC0B65E070E00E94680B02969987D9
:100C3000888782E08E8711C0039779F48DE090E079
:100C40009B878A870E94DC0B65E070E00E94680B3E
:100C500002969987888783E08E872091E8003091FB
:100C6000E9003D872C878091E8009091E90001968A
:100C700063E070E00E94680B9093E9008093E800C5
:100C8000D901AA0FBB1FAA0FBB1FAA0FBB1FA21B14
:100C9000B30BA950BF4F87E0FE01389601900D922B
:100CA0008A95E1F7220F331FF901EE51FF4F81E0E2
:100CB00090E09183808387E0FE013896DE011196F3
:100CC00001900D928A95E1F729813A814B815C81EF
:100CD0006D817E818F8190E02E960FB6F894DEBFF5
:100CE0000FBECDBFDF91CF9108954F925F926F926B
:100CF0007F928F929F92AF92BF92CF92DF92EF92AC
:100D0000FF920F931F93CF93DF93CDB7DEB7279753
:100D10000FB6F894DEBF0FBECDBF29833A834B8355
:100D20005C83811149C00B811C8148018FEF881AB7
:100D3000980AE980FA80B401C7010E942304570190
:100D40008FEFA81AB80AB801C5010E9423046701F1
:100D500081E0C81AD108B801C6010E9423043801F5
:100D600082E0680E711CB301C5010E942304B30127
:100D7000C6010E942304B8016D5F7F4FC7010E9426
:100D80002304B801C7010E94110401501109B801E0
:100D9000C5010E941104B801C6010E941104B401EA
:100DA000C5010E941104B401C6010E941104B301DF
:100DB000C7010E9411040AC1813009F059C00B819A
:100DC0001C8138018FEF681A780AA980BA80B801AF
:100DD000C5010E942304480182E0880E911CB401E1
:100DE000C5010E942304650181E0C81AD108B3013E
:100DF000C6010E942304B801C6010E942304B40165
:100E0000C6010E94230475018FEFE81AF80AB301A6
:100E1000C7010E942304B801C7010E942304B40142
:100E2000C7010E942304480181E0881A9108B40197
:100E3000C5010E941104B301C5010E941104B8014B
:100E4000C6010E941104B401C6010E941104B3013D
:100E5000C6010E941104B801C7010E941104B40127
:100E6000C7010E941104B301C7010E941104AEC062
:100E70008230E9F5EB80FC8067018FEFC81AD80A51
:100E800009811A81B601C8010E942304B7016E5F6F
:100E90007F4FC8010E942304B701C8010E942304A8
:100EA000480181E0881A9108B601C4010E94230418
:100EB00058018FEFA81AB80AB601C5010E94230491
:100EC000B701C8010E941104B601C8010E941104B3
:100ED000B70161507109C8010E941104B701C40132
:100EE0000E941104B701C5010E9411046FC0833034
:100EF00009F06CC00B811C8138018FEF681A780AE9
:100F0000A980BA80B301C5010E942304480183E08F
:100F1000880E911CB401C5010E942304650181E083
:100F2000C81AD108B801C6010E942304B301C60142
:100F30000E942304280182E0480E511CB201C60120
:100F40000E942304B401C6010E94230475018FEF9F
:100F5000E81AF80AB801C7010E942304B301C701C7
:100F60000E942304B201C7010E942304B401C701F7
:100F70000E942304B801C5010E941104B201C501F9
:100F80000E941104580181E0A81AB108B501C601F8
:100F90000E941104B801C6010E941104B301C601E8
:100FA0000E941104B201C6010E941104B501C701DB
:100FB0000E941104B801C7010E941104B301C701C6
:100FC0000E941104B201C7010E94110427960FB6B6
:100FD000F894DEBF0FBECDBFDF91CF911F910F916F
:100FE000FF90EF90DF90CF90BF90AF909F908F9049
:100FF0007F906F905F904F90089580910E01909137
:101000000F01C29790930F0180930E010895CF9323
:10101000DF932091EA003091EB0080910E019091D6
:101020000F01281739070CF062C074C0FE01EE0FE3
:10103000FF1FEE51FF4F80819181019709F055C04C
:10104000FE01EE0FFF1FEE0FFF1FEE0FFF1FEC1B49
:10105000FD0BE950FF4F82819381039689F0FE01D9
:10106000EE0FFF1FEE0FFF1FEE0FFF1FEC1BFD0B20
:10107000E950FF4F8281938101979383828335C02A
:10108000FE01EE0FFF1FEE51FF4F11821082809183
:101090000C0190910D01019690930D0180930C012C
:1010A00080910C0190910D0163E070E00E94680B4B
:1010B000892B89F480911001909111010A975CF4B9
:1010C00080911001909111010196909311018093EC
:1010D00010010E94FD0760910C0170910D0180913B
:1010E0001001909111010E943605219602C0C0E0C6
:1010F000D0E0C330D1050CF499CF1092EB001092E0
:10110000EA008091F2009091F30001969093F30031
:101110008093F200DF91CF91089580E090E01AC0B3
:10112000282F2295207F28BBFC01EC59FF4F2081FE
:101130002BBBEDEEF2E03197F1F700C000002091FB
:10114000EA003091EB002D5F3F4F3093EB0020938E
:10115000EA000196803191051CF308958091EE001C
:101160009091EF00892BC9F0E4E1F1E08081918159
:101170000197918380838091EE009091EF00019719
:101180009093EF008093EE008091120190911301F3
:10119000019690931301809312010895809112019A
:1011A00090911301892BC9F0E4E1F1E080819181F4
:1011B0000196918380838091120190911301019790
:1011C00090931301809312018091EE009091EF00B3
:1011D00001969093EF008093EE000895AF92BF9236
:1011E000CF92DF92EF92FF920F93CF93DF93CDB721
:1011F000DEB72E970FB6F894DEBF0FBECDBF2983A2
:101200003A834B835C83A886B986CA86DB860E87C1
:101210002B813C818A859B85281B390BC901992329
:1012200024F488279927821B930B49815A812885AA
:101230003985421B530B9A0122F422273327241BA2
:10124000350B4E8541111BC08330910519F081305B
:10125000910521F42230310509F449C0833091050C
:1012600021F42115310509F445C004970CF045C05F
:10127000233031050CF444C080E090E064C042307B
:1012800081F48230910511F0009719F42230310574
:10129000D1F10397DCF523303105DCF180E090E0FB
:1012A00052C04330A1F48330910519F42115310562
:1012B00099F18330910519F42230310581F10497B9
:1012C0008CF5233031058CF180E090E03CC041305A
:1012D00079F58330910519F42230310561F10497D5
:1012E0006CF5233031056CF180E090E02CC080E09B
:1012F00090E029C080E090E026C080E090E023C02C
:1013000081E090E020C080E090E01DC080E090E0AF
:101310001AC081E090E017C080E090E014C080E047
:1013200090E011C080E090E00EC081E090E00BC042
:1013300080E090E008C080E090E005C080E090E0B0
:1013400002C081E090E02E960FB6F894DEBF0FBE8B
:10135000CDBFDF91CF910F91FF90EF90DF90CF90B5
:10136000BF90AF900895AF92BF92CF92DF92EF926D
:10137000FF920F93CF93DF93C0E0D0E025C0FE0132
:10138000EE0FFF1FEE0FFF1FEE0FFF1FEC1BFD0BFD
:10139000E950FF4FA080B180C280D380E480F58007
:1013A0000681209114013091150140911601509150
:1013B0001701609118017091190180911A010E9422
:1013C000EE08892B39F42196C330D105C4F280E0B0
:1013D00090E002C081E090E0DF91CF910F91FF900B
:1013E000EF90DF90CF90BF90AF900895CF93DF93B1
:1013F0003DC00E94B309892B19F083E08093F4006B
:101400000E9483058091F2009091F3000A9731F4D5
:101410000E94D1051092F3001092F200C0E0D0E0DB
:101420001EC0FE01EE0FFF1FEE51FF4F8081918124
:10143000892BA1F0FE01EE0FFF1FEE0FFF1FEE0F35
:10144000FF1FEC1BFD0BE950FF4F208131814281D2
:1014500053816481758186810E9475062196C3300F
:10146000D105FCF20E948D080E9407088091F400CB
:10147000813009F4BECFDF91CF9108951F920F9272
:101480000FB60F9211242F933F934F935F936F9357
:101490007F938F939F93AF93BF93EF93FF9380912D
:1014A000F400811104C081E08093F4001DC080919C
:1014B000F400833021F481E08093F40015C0809122
:1014C000F400843089F48091EC009091ED00019655
:1014D0009093ED008093EC006091EC007091ED0032
:1014E00080E090E00E943603FF91EF91BF91AF91B1
:1014F0009F918F917F916F915F914F913F912F912C
:101500000F900FBE0F901F9018951F920F920FB65D
:101510000F9211242F933F934F935F936F937F9379
:101520008F939F93AF93BF93EF93FF930E94AE0867
:10153000FF91EF91BF91AF919F918F917F916F91AB
:101540005F914F913F912F910F900FBE0F901F9081
:1015500018951F920F920FB60F9211242F933F935D
:101560004F935F936F937F938F939F93AF93BF93AB
:10157000EF93FF930E94CE08FF91EF91BF91AF913F
:101580009F918F917F916F915F914F913F912F919B
:101590000F900FBE0F901F90189580E090E00E9472
:1015A0004900CB010E94E10B8FEF8ABB98EF97BBFC
:1015B00084BB83EF81BB88B3846088BB80E28BBF30
:1015C0008BB780688BBF8BB780648BBF84B784BFB9
:1015D00085B785BF85B7837685BF78940E949F02C3
:1015E0000E94300380E090E006C0FC01EC59FF4F00
:1015F0002FEF2083019680319105BCF3E4E1F1E007
:1016000081E090E09383828384E090E09183808303
:1016100016821092F40080E090E00E947D038F3FDC
:1016200029F460E080E090E00E94360380E090E0E2
:101630000E947D0390E09093F1008093F00082E09F
:1016400090E09093EF008093EE0083E090E0909321
:1016500013018093120181E090E090931101809337
:10166000100110920D0110920C018AE090E090930D
:10167000F3008093F20088E592E090930F0180934D
:101680000E011092F6001092F50060910C0170911D
:101690000D0180911001909111010E9436058091F9
:1016A000F400811102C00E9434048091F400833060
:1016B00011F40E94E0048091F400813011F40E9442
:1016C000F6098091F400843051F70E94D603E7CFE9
:1016D00097FB072E16F4009407D077FD09D00E94DF
:1016E0007C0B07FC05D03EF4909581959F4F0895A3
:1016F000709561957F4F0895AA1BBB1B51E107C0F0
:10170000AA1FBB1FA617B70710F0A61BB70B881F91
:10171000991F5A95A9F780959095BC01CD01089520
:101720008F929F92AF92BF92CF92DF92EF92FF92F1
:10173000CF93DF93EC01688179818A819B81611568
:1017400071058105910521F464E279ED8BE597E05F
:101750002DE133EF41E050E00E94EC0B49015A01CA
:101760009B01AC01A7EAB1E40E940B0C6B017C0168
:10177000ACEEB4EFA50194010E94190CDC01CB0181
:101780008C0D9D1DAE1DBF1DB7FF03C00197A109A4
:10179000B04888839983AA83BB839F77DF91CF91D9
:1017A000FF90EF90DF90CF90BF90AF909F908F9081
:1017B00008950E94900B089580E690E00E94900B9F
:1017C0000895A0E0B0E08093600090936100A09342
:1017D0006200B09363000895052E97FB1EF40094F9
:1017E0000E94030C57FD07D00E941E0C07FC03D07B
:1017F0004EF40C94030C50954095309521953F4F35
:101800004F4F5F4F089590958095709561957F4FEC
:101810008F4F9F4F08950E94400CA59F900DB49F3D
:10182000900DA49F800D911D11240895B7FF0C9475
:101830000B0C0E940B0C821B930B0895A1E21A2E35
:10184000AA1BBB1BFD010DC0AA1FBB1FEE1FFF1F64
:10185000A217B307E407F50720F0A21BB30BE40BB4
:10186000F50B661F771F881F991F1A9469F76095FB
:101870007095809590959B01AC01BD01CF010895B5
:10188000A29FB001B39FC001A39F700D811D1124C1
:10189000911DB29F700D811D1124911D0895F89422
:0218A000FFCF78
:1018A20001000000FFFFFFFFFFFFFFFFFFFFFFFF41
:1018B200FFFFFFFFC1FBF7EFC1FFC1F5F5F5FFD158
:1018C200D5D5C5FFC1DDC1FFC1DDC1FFC1F5F1FF46
:1018D200D1D5D5C554657374696E67204E6F772E66
:1018E2002E2E0056616C75653A203030004E6577B9
:1018F20020486967682053636F72652100486967F1
:10190200682053636F72653A20303030004C657640
:10191200656C3A2030300053636F72653A20303084
:021922000000C3
:00000001FF
